:020000040800F2
:1000000000000220090D0008511C00085F1C0008B8
:10001000671C00086F1C0008771C00080000000027
:100020000000000000000000000000007F1C00082D
:100030008D1C0008000000009B1C0008A91C000883
:10004000590D0008590D0008590D0008590D0008F8
:10005000590D0008590D0008590D0008590D0008E8
:10006000590D0008590D0008590D0008590D0008D8
:10007000590D0008590D0008590D0008590D0008C8
:10008000590D0008590D0008590D0008590D0008B8
:10009000590D0008590D0008590D0008590D0008A8
:1000A000590D0008590D0008590D0008590D000898
:1000B000590D0008590D0008590D0008590D000888
:1000C000590D0008590D0008590D0008590D000878
:1000D000590D0008A1200008590D0008590D00080D
:1000E000590D0008590D0008590D0008590D000858
:1000F000590D0008590D0008590D0008590D000848
:10010000590D0008590D0008590D0008590D000837
:10011000590D0008590D0008590D0008590D000827
:10012000590D0008590D0008590D0008590D000817
:10013000590D0008590D0008590D0008590D000807
:10014000590D0008590D0008590D0008590D0008F7
:10015000590D0008590D0008590D0008590D0008E7
:10016000590D0008590D0008590D0008590D0008D7
:10017000590D0008590D0008590D0008590D0008C7
:08018000590D0008590D00089B
:1001900010B5054C237833B9044B13B10448AFF3C1
:1001A00000800123237010BDDC010020000000004E
:1001B0005CCA000808B5034B1BB103490348AFF301
:1001C000008008BD00000000E00100205CCA0008BB
:1001D00081F0004102E000BF83F0004330B54FEAF8
:1001E00041044FEA430594EA050F08BF90EA020F65
:1001F0001FBF54EA000C55EA020C7FEA645C7FEAF8
:10020000655C00F0E2804FEA5454D4EB5555B8BF1A
:100210006D420CDD2C4480EA020281EA030382EA8B
:10022000000083EA010180EA020281EA0303362D1D
:1002300088BF30BD11F0004F4FEA01314FF4801CF0
:100240004CEA113102D0404261EB410113F0004F02
:100250004FEA03334CEA133302D0524263EB4303B9
:1002600094EA050F00F0A780A4F10104D5F1200E57
:100270000DDB02FA0EFC22FA05F2801841F10001B2
:1002800003FA0EF2801843FA05F359410EE0A5F186
:1002900020050EF1200E012A03FA0EFC28BF4CF0B7
:1002A000020C43FA05F3C01851EBE37101F000456D
:1002B00007D54FF0000EDCF1000C7EEB00006EEB7A
:1002C0000101B1F5801F1BD3B1F5001F0CD3490804
:1002D0005FEA30004FEA3C0C04F101044FEA44525B
:1002E00012F5800F80F09A80BCF1004F08BF5FEAE2
:1002F000500C50F1000041EB045141EA050130BDC2
:100300005FEA4C0C404141EB0101013C28BFB1F5D3
:10031000801FE9D291F0000F04BF01460020B1FA1E
:1003200081F308BF2033A3F10B03B3F120020CDAF1
:100330000C3208DD02F1140CC2F10C0201FA0CF0CF
:1003400021FA02F10CE002F11402D8BFC2F1200C34
:1003500001FA02F120FA0CFCDCBF41EA0C019040EA
:10036000E41AA2BF01EB0451294330BD6FEA040433
:100370001F3C1CDA0C340EDC04F11404C4F120021E
:1003800020FA04F001FA02F340EA030021FA04F330
:1003900045EA030130BDC4F10C04C4F1200220FA87
:1003A00002F001FA04F340EA0300294630BD21FAC5
:1003B00004F0294630BD94F0000F83F4801306BF8B
:1003C00081F480110134013D4EE77FEA645C18BF7F
:1003D0007FEA655C29D094EA050F08BF90EA020F16
:1003E00005D054EA000C04BF1946104630BD91EA0E
:1003F000030F1EBF0021002030BD5FEA545C05D111
:100400004000494128BF41F0004130BD14F580044F
:100410003CBF01F5801130BD01F0004545F0FE41C3
:1004200041F470014FF0000030BD7FEA645C1ABFF8
:10043000194610467FEA655C1CBF0B46024650EA2F
:10044000013406BF52EA033591EA030F41F400215B
:1004500030BD00BF90F0000F04BF0021704730B5E1
:100460004FF4806404F132044FF000054FF00001B6
:1004700050E700BF90F0000F04BF0021704730B577
:100480004FF4806404F1320410F0004548BF40424C
:100490004FF000013EE700BF42004FEAE2014FEAA1
:1004A00031014FEA02701FBF12F07F4393F07F4F7C
:1004B00081F06051704732F07F4208BF704793F07F
:1004C0007F4F04BF41F40021704730B54FF4607492
:1004D00001F0004521F000411CE700BF50EA010295
:1004E00008BF704730B54FF000050AE050EA01023E
:1004F00008BF704730B511F0004502D5404261EBAE
:1005000041014FF4806404F132045FEA915C3FF4EE
:10051000D8AE4FF003025FEADC0C18BF03325FEA8B
:10052000DC0C18BF033202EBDC02C2F1200300FA3C
:1005300003FC20FA02F001FA03FE40EA0E0021FA61
:1005400002F11444BDE600BF70B54FF0FF0C4CF44F
:10055000E06C1CEA11541DBF1CEA135594EA0C0F01
:1005600095EA0C0F00F0DEF82C4481EA030621EA3C
:100570004C5123EA4C5350EA013518BF52EA033577
:1005800041F4801143F4801338D0A0FB02CE4FF029
:100590000005E1FB02E506F00042E0FB03E54FF059
:1005A0000006E1FB03569CF0000F18BF4EF0010E51
:1005B000A4F1FF04B6F5007F64F5407404D25FEA4D
:1005C0004E0E6D4146EB060642EAC62141EA555100
:1005D0004FEAC52040EA5E504FEACE2EB4F1FD0C42
:1005E00088BFBCF5E06F1ED8BEF1004F08BF5FEAC0
:1005F000500E50F1000041EB045170BD06F0004672
:1006000046EA010140EA020081EA0301B4EB5C041E
:10061000C2BFD4EB0C0541EA045170BD41F4801116
:100620004FF0000E013C00F3AB8014F1360FDEBF3B
:10063000002001F0004170BDC4F10004203C35DA17
:100640000C341BDC04F11404C4F1200500FA05F39A
:1006500020FA04F001FA05F240EA020001F000423B
:1006600021F0004110EBD37021FA04F642EB0601B1
:100670005EEA430E08BF20EAD37070BDC4F10C04DB
:10068000C4F1200500FA04F320FA05F001FA04F29F
:1006900040EA020001F0004110EBD37041F100018B
:1006A0005EEA430E08BF20EAD37070BDC4F1200596
:1006B00000FA05F24EEA020E20FA04F301FA05F2FE
:1006C00043EA020321FA04F001F0004121FA04F2A6
:1006D00020EA020000EBD3705EEA430E08BF20EA76
:1006E000D37070BD94F0000F0FD101F000464000B0
:1006F00041EB010111F4801F08BF013CF7D041EA32
:10070000060195F0000F18BF704703F00046520035
:1007100043EB030313F4801F08BF013DF7D043EA06
:100720000603704794EA0C0F0CEA135518BF95EABC
:100730000C0F0CD050EA410618BF52EA4306D1D143
:1007400081EA030101F000414FF0000070BD50EA62
:10075000410606BF1046194652EA430619D094EAEC
:100760000C0F02D150EA013613D195EA0C0F05D1D6
:1007700052EA03361CBF104619460AD181EA03012A
:1007800001F0004141F0FE4141F470014FF00000E2
:1007900070BD41F0FE4141F4780170BD70B54FF07D
:1007A000FF0C4CF4E06C1CEA11541DBF1CEA1355FD
:1007B00094EA0C0F95EA0C0F00F0A7F8A4EB0504DF
:1007C00081EA030E52EA03354FEA013100F08880D6
:1007D0004FEA03334FF0805545EA131343EA12639F
:1007E0004FEA022245EA111545EA10654FEA002654
:1007F0000EF000419D4208BF964244F1FD0404F50D
:10080000407402D25B084FEA3202B61A65EB030568
:100810005B084FEA32024FF480104FF4002CB6EB25
:10082000020E75EB030E22BFB61A754640EA0C00A5
:100830005B084FEA3202B6EB020E75EB030E22BFE5
:10084000B61A754640EA5C005B084FEA3202B6EB26
:10085000020E75EB030E22BFB61A754640EA9C00E5
:100860005B084FEA3202B6EB020E75EB030E22BFB5
:10087000B61A754640EADC0055EA060E18D04FEA73
:10088000051545EA16754FEA06164FEAC30343EA13
:1008900052734FEAC2025FEA1C1CC0D111F4801FE0
:1008A0000BD141EA00014FF000004FF0004CB6E7D9
:1008B00011F4801F04BF01430020B4F1FD0C88BF78
:1008C000BCF5E06F3FF6AFAEB5EB030C04BFB6EB83
:1008D000020C5FEA500C50F1000041EB045170BD76
:1008E0000EF0004E4EEA113114EB5C04C2BFD4EBA3
:1008F0000C0541EA045170BD41F480114FF0000E27
:10090000013C90E645EA060E8DE60CEA135594EAA2
:100910000C0F08BF95EA0C0F3FF43BAF94EA0C0FA5
:100920000AD150EA01347FF434AF95EA0C0F7FF41A
:1009300025AF104619462CE795EA0C0F06D152EA6E
:1009400003353FF4FDAE1046194622E750EA410652
:1009500018BF52EA43067FF4C5AE50EA41047FF463
:100960000DAF52EA43057FF4EBAE12E74A0011D215
:1009700012F5001211D20DD56FF47873B3EB6252F9
:100980000ED44FEAC12343F0004343EA505323FA05
:1009900002F070474FF00000704750EA013002D17A
:1009A0004FF0FF3070474FF0000070474FEA4102B0
:1009B000B2F1E04324BFB3F5001CDCF1FE5C0DD9BD
:1009C00001F0004C4FEAC0024CEA5070B2F1004F07
:1009D00040EB830008BF20F00100704711F0804F0A
:1009E00021D113F13872BCBF01F00040704741F4CF
:1009F00080114FEA5252C2F11802C2F1200C10FAD3
:100A00000CF320FA02F018BF40F001004FEAC123B6
:100A10004FEAD32303FA0CFC40EA0C0023FA02F35A
:100A20004FEA4303CCE77FEA625307D150EA013330
:100A30001EBF4FF0FE4040F44000704701F0004000
:100A400040F0FE4040F40000704700BF10F8012B5A
:100A500011F8013B012A28BF9A42F7D0D01A7047FB
:100A600001F0FF01102A2BDB10F0070F08D010F85F
:100A7000013B013A8B422DD010F0070F42B3F6D163
:100A8000F0B441EA012141EA014122F007047FF07C
:100A900000070023F0E80256083C85EA010586EAD3
:100AA000010685FA47F5A3FA87F586FA47F6A5FA0F
:100AB00087F68EB9EED1F0BC01F0FF0102F007021B
:100AC00032B110F8013B013A83EA010313B1F8D1C6
:100AD0000020704701387047002D06BF35460338A7
:100AE000073815F0010F07D1013015F4807F02BFE0
:100AF000013015F4C03F0130F0BC0138704700BF31
:100B0000034613F8012B002AFBD1181A013870474D
:100B10004FF0FF3C06E000BF4FF0010C02E000BFC9
:100B20004FF0010C4DF804CD4FEA410C7FEA6C5CAC
:100B30004FEA430C18BF7FEA6C5C1BD001B050EA4F
:100B4000410C0CBF52EA430C91EA030F02BF90EA3A
:100B5000020F0020704710F1000F91EA030F58BFF9
:100B6000994208BF90422CBFD8176FEAE37040F05B
:100B7000010070474FEA410C7FEA6C5C02D150EAF9
:100B8000013C07D14FEA430C7FEA6C5CD6D152EAB4
:100B9000033CD3D05DF8040B704700BF8446104679
:100BA00062468C461946634600E000BF01B5FFF778
:100BB000B7FF002848BF10F1000F01BD4DF808ED48
:100BC000FFF7F4FF0CBF012000205DF808FB00BF19
:100BD0004DF808EDFFF7EAFF34BF012000205DF873
:100BE00008FB00BF4DF808EDFFF7E0FF94BF0120C0
:100BF00000205DF808FB00BF4DF808EDFFF7CEFFC1
:100C000094BF012000205DF808FB00BF4DF808EDFF
:100C1000FFF7C4FF34BF012000205DF808FB00BFD0
:100C20004FEA410C7FEA6C5C02D150EA013C0AD1E8
:100C30004FEA430C7FEA6C5C02D152EA033C02D1DA
:100C40004FF0000070474FF0010070474FEA41023B
:100C500012F5001215D211D56FF47873B3EB62520E
:100C600012D94FEAC12343F0004343EA505311F035
:100C7000004F23FA02F018BF404270474FF00000C7
:100C8000704750EA013005D111F0004008BF6FF005
:100C9000004070474FF00000704700BF38B5002299
:100CA000002304460D46FFF793FF28B92046294646
:100CB000BDE8384000F00AB8204605F1004100F0D8
:100CC00005F8404261EB410138BD00BFD0B50C4B87
:100CD000002206460F46FFF737FCFFF747FE0446A3
:100CE000FFF7B8FB074B0022FFF72EFC02460B462E
:100CF00030463946FFF770FAFFF738FE2146D0BD7F
:100D00000000F03D0000F041DFF834D0002103E0A6
:100D10000C4B5B58435004310B480C4B42189A4221
:100D2000F6D30B4A02E0002342F8043B094B9A42F7
:100D3000F9D300F0C1FF07F0ABFA00F039FE7047BD
:100D4000000002206CCA000800000020DC01002026
:100D5000DC01002058040020FEE7000080B485B0CC
:100D600000AF87ED010AC7ED000A264BBB60D7ED47
:100D7000007AF5EEC07AF1EE10FA02D84FF4006373
:100D80003AE097ED017AD7ED007AB4EEE77AF1EE2A
:100D900010FA01DD3B687B60D7ED017AF5EEC07A91
:100DA000F1EE10FA02D54FF000037B6097ED017A67
:100DB000D7ED027A67EE276A97ED007AC6EE877A5A
:100DC0009FED117A77EE877AC7ED037AD7ED037A34
:100DD0009FED0E7AF4EEC77AF1EE10FA01DD0C4BBE
:100DE000FB60D7ED037AB6EE007A77EE877AFCEEF9
:100DF000E77A17EE903A9BB218461437BD465DF875
:100E0000047B704700E0FF440000004500F07F4590
:100E100000F07F4580B485B000AF0346FB80FB88BF
:100E200007EE903AF8EE677AC7ED037A174BBB608E
:100E3000D7ED037A9FED167AF4EEC77AF1EE10FA49
:100E400001DD144BFB60D7ED037A9FED137AF4EECE
:100E5000C77AF1EE10FA02D8DFED106A0DE0D7ED97
:100E6000037A9FED0D7A77EEC77AB1EE047A27EE1A
:100E7000877AD7ED027AC7EE276AF0EE667AB0EE8F
:100E8000670A1437BD465DF8047B704700E0FF44F5
:100E900000F07F4500F07F450000004500000000A5
:100EA00090B587B002AF0446084611461A4623465D
:100EB000FB800346BB800B46FB7013463B80134B05
:100EC0001B88FB81124B1B88BB81104A3B88138017
:100ED0000F4A3B8C13800F4B1A88FB88D31A9AB2A7
:100EE000FB789CB2B988F8887B6A0193FB78009301
:100EF000234604F0E1FC054AFB891380044ABB89C0
:100F0000138000BF1437BD4690BD00BFF60200201D
:100F100010000020F802002090B58FB002AF044608
:100F2000084611461A462346FB800346BB800B4603
:100F3000FB7013463B8007F14803FB6007F110008C
:100F4000FB687A6C202107F099F83C88FA78B98818
:100F5000F88807F110030193B7F840300093234657
:100F6000FFF79EFF00BF3437BD4690BD90B585B0FA
:100F700000AF0446084611461A462346FB80034646
:100F8000BB800B467B8013463B80094B1B88FB8153
:100F9000074A3B8C13803B887A88B988F88804F02C
:100FA0002DFB034AFB89138000BF1437BD4690BD5B
:100FB000F602002090B587B002AF044608461146FD
:100FC0001A462346FB800346BB800B467B801346B4
:100FD0003B801F4B1B88FB813B887A88B988F88847
:100FE0004FF6FF74009404F0CBFA194B45F25842C7
:100FF0001A803B887A88B988F88804F083FBFB88DC
:10100000013398B2BB881C3399B27B88013B9AB2FA
:10101000BB881C339BB245F258440094FFF7A6FFEF
:10102000FB880A3398B2BB88073399B23B6A0193B5
:101030004FF6FF73009340F2CF131022FFF730FFFB
:10104000034AFB89138000BF1437BD4690BD00BF23
:10105000F602002080B582B002AF4FF6FF7004F0B8
:1010600061FA40F2CF1300932723EF2200210020E2
:1010700004F086FA564B019340F2CF1300934FF6DB
:10108000FF73102208210A20FFF70AFF514B00933B
:101090009123E52232210A20FFF78CFF4E4B00936B
:1010A00040F2331372229E210A20FFF783FF4B4B3D
:1010B000009340F23313E5229E217D20FFF77AFF53
:1010C000474B01934FF6FF73009345F258431022AC
:1010D00052211420FFF7E4FE45F258430093792390
:1010E000DB2279211420FFF741FF3E4B01934FF69D
:1010F000FF73009345F25843102280211420FFF71C
:10110000CFFE394B01934FF6FF73009345F25843DE
:101110001022C4211420FFF7C3FE344B01934FF675
:10112000FF73009345F258431022E0211420FFF78B
:10113000B7FE2F4B01934FF6FF73009345F25843D0
:101140001022FC211420FFF7ABFE2A4B01934FF62F
:10115000FF73009345F2584310224FF48C71142012
:10116000FFF79EFE244B01934FF6FF73009345F269
:1011700058431022C4218720FFF792FE1F4B019392
:101180004FF6FF73009345F258431022E021872069
:10119000FFF786FE1A4B01934FF6FF73009345F25B
:1011A00058431022FC218720FFF77AFE154B01934C
:1011B0004FF6FF73009345F2584310224FF48C71A1
:1011C0008720FFF76DFE00F01FF800BFBD4680BD11
:1011D00008AC000814AC00081CAC000824AC0008E3
:1011E0002CAC000834AC000838AC00083CAC00085B
:1011F00040AC000844AC000848AC00084CAC000807
:1012000050AC000854AC000880B586B004AF554B14
:101210007B6045F258437B8000233B80524B1B7818
:10122000002B08D0514B7B604FF607437B804FF675
:1012300007433B800BE04E4B1B78002B07D04D4BF8
:101240007B604FF4FC637B8040F2CF133B807B8854
:1012500000931E23E4220621912004F091F94FF619
:10126000FF7300930623E42206219120FFF77EFE00
:101270004FF6FF7300931E23E4221E219120FFF7F7
:1012800075FE4FF6FF7300931E23912206219120D5
:10129000FFF76CFE4FF6FF7300931E23E422062136
:1012A000E420FFF763FE7B680293334B01937B8856
:1012B00000934FF6FF7310220C219A20FFF72CFEAB
:1012C0002E4B1B7802932E4B019340F2CF130093C9
:1012D0004FF6FF730C2218214220FFF71DFE294B09
:1012E0001B681846FFF7D8F802460B46CDE90223E3
:1012F000254B019340F2CF1300934FF6FF730C225E
:1013000018217620FFF708FE204B1B681846FFF7D0
:10131000C3F802460B463988CDE902231C4B0193E2
:101320004FF6FF7300930B46182256215220FFF709
:10133000F3FD184B1B681846FFF7AEF802460B4644
:10134000CDE90223124B01934FF6FF73009340F255
:10135000CF13102280219220FFF7DEFD00BF083757
:10136000BD4680BD58AC00080502002060AC0008F6
:101370000402002068AC00086CAC00080E000020DD
:1013800074AC0008080000207CAC000800020020BB
:1013900088AC00080400002080B489B000AFF86079
:1013A000B96087ED010AC7ED000A97ED007AD7ED25
:1013B000017A77EE677AC7ED067AFB6893ED007ADB
:1013C000314BD3ED006AD7ED067A66EEA77A77EE59
:1013D000277AFB68C3ED007AFB68D3ED017A97EDBD
:1013E000067A77EE676A284B93ED007AC6EE877A25
:1013F000C7ED057ABB6893ED007AD7ED067A27EE44
:10140000277ABB68D3ED016AFB68D3ED007A66EEFC
:10141000A77A37EE277ABB68D3ED026AD7ED057A53
:1014200066EEA77A77EE277AC7ED077ABB68D3ED29
:10143000037A97ED077AB4EEE77AF1EE10FA02DD5F
:10144000BB68DB68FB61BB68D3ED037AF1EE677ABA
:1014500097ED077AB4EEE77AF1EE10FA06D5BB689D
:10146000D3ED037AF1EE677AC7ED077AFB68BA69C4
:101470005A60FB6907EE903AB0EE670A2437BD4622
:101480005DF8047B704700BF0000002080B584B089
:1014900004AFFFF7B9FE384B1B880293374B01931B
:1014A0004FF6FF73009300231022C4213820FFF76A
:1014B00033FD334B1B681846FEF7EEFF02460B4622
:1014C000CDE902232F4B01934FF6FF7300930023C6
:1014D0001022C4219720FFF71FFD294B5B68184697
:1014E000FEF7DAFF02460B46CDE90223254B0193B6
:1014F0004FF6FF73009300231022E0219720FFF79F
:101500000BFD1F4B9B681846FEF7C6FF02460B46B5
:10151000CDE902231B4B01934FF6FF730093002389
:101520001022FC219720FFF7F7FC174B1B68184689
:10153000FEF7B2FF02460B46CDE90223134B01939F
:101540004FF6FF730093002310224FF48C719F20FD
:10155000FFF7E2FC0E4B1B7802930E4B01934FF604
:10156000FF730093002310224FF48C713020FFF79B
:10157000D3FC00BFBD4680BDFC01002090AC00083C
:101580000C02002094AC0008080000209CAC00086D
:101590000E000020A4AC000880B588B004AF87ED31
:1015A000010AD7ED017AF5EEC07AF1EE10FA02D514
:1015B0004FF000037B60D7ED017A9FED2F7AF4EEB8
:1015C000C77AF1EE10FA01DD2C4B7B60D7ED017A82
:1015D000B6EE007A77EE877AFCEEE77A17EE903A6D
:1015E000FB81FB8907EE903AF8EEE77A9FED247ACB
:1015F00027EE877ADFED236AC7EE267AFCEEE77ADC
:1016000017EE903ABB81BB89184600F075FE0020AA
:1016100004F084FC0346FB811B4AFB891380FB8991
:101620001846FFF7F7FB87ED020A184ABB681360FC
:10163000FB890293164B01934FF6FF73009300232F
:101640001022E0213820FFF767FCB868FEF724FF7E
:1016500002460B46CDE902230E4B01934FF6FF7372
:10166000009300231022FC213820FFF755FC00BF17
:101670001037BD4680BD00BF00F07F4500F07F45BC
:1016800000404E45000080450C000020080200206C
:1016900090AC0008ACAC000880B582B000AF7860B8
:1016A00005229449786806F091FD0346002B18D175
:1016B0007B680533184605F0D6F853EC102B10461E
:1016C0001946FFF773F903468B4A13608A4B1B6870
:1016D0001846FEF7E1FE02460B46884806F0ECFB92
:1016E00003E102228649786806F070FD0346002B6C
:1016F00018D17B680233184605F0B5F853EC102B6F
:1017000010461946FFF752F903467E4A13607D4B97
:101710001B681846FEF7C0FE02460B467A4806F0E4
:10172000CBFBE2E002227949786806F04FFD0346E0
:10173000002B18D17B680233184605F094F853EC5F
:10174000102B10461946FFF731F903466D4A5360D6
:101750006C4B5B681846FEF79FFE02460B466C48D2
:1017600006F0AAFBC1E002226A49786806F02EFD65
:101770000346002B18D17B680233184605F073F836
:1017800053EC102B10461946FFF710F903465D4A3B
:1017900093605C4B9B681846FEF77EFE02460B4644
:1017A0005D4806F089FBA0E05C497868FFF74EF9D8
:1017B0000346002B1ED15A4B93ED007A594BD3EDC3
:1017C000007AB4EEE77AF1EE10FA09DB564B01220B
:1017D0001A70564B00221A70554806F0D5FB84E06B
:1017E000514B00221A70514B01221A70514806F0D9
:1017F000CBFB7AE050497868FFF728F90346002BC5
:1018000006D14A4B00221A704C4806F0BDFB6CE032
:1018100006224B49786806F0D9FC0346002B18D104
:101820007B680633184605F01EF853EC102B104663
:101830001946FFF7BBF803463A4A1360394B1B6859
:101840001846FEF729FE02460B463E4806F034FBDA
:101850004BE03D497868FFF7F9F80346002B41D18A
:101860003A4806F091FB244B1B681846FEF714FE1D
:1018700002460B46364806F01FFB224B1B681846F3
:10188000FEF70AFE02460B46324806F015FB1D4BDA
:101890005B681846FEF700FE02460B462E4806F02F
:1018A0000BFB184B9B681846FEF7F6FD02460B46ED
:1018B0002A4806F001FB1B4B1B681846FEF7ECFD9F
:1018C00002460B46264806F0F7FA184B1B781946D5
:1018D000244806F0F1FA144B1B781946224806F00A
:1018E000EBFA02E0214806F04FFB00BF0837BD4687
:1018F00080BD00BFB4AC000804000020BCAC0008F0
:10190000D8AC00080C020020DCAC0008F0AC0008E9
:10191000F4AC000808AD00080CAD000820AD0008CC
:101920000002002008000020050200200402002020
:1019300028AD000844AD000854AD00085CAD0008B7
:101940006CAD000874AD00088CAD000890AD0008C7
:10195000A8AD0008C0AD0008CCAD0008D8AD0008A7
:10196000E4AD0008F4AD000800AE00080CAE0008BD
:1019700080B582B000AF0C4B1B881BB2002B0FDA76
:10198000094B1B88C3F30D037B60084A7B68134433
:1019900000221A700548FFF77FFE034B00221A80D1
:1019A00000BF0837BD4680BDF40200202C02002095
:1019B0002DE9F04F9BB010AF704B714A1A606F4B1E
:1019C000704A5A606D4B4FF000029A606B4B6E4A42
:1019D000DA604FF4A06003F0DFFFA82000F01EFAE9
:1019E0004FF4E13000F000FB03F0B4FF01F040F9E8
:1019F00000F0ACFB00F04CFCFFF72CFB634B1B78BA
:101A00001421184600F01AFC03461A46604B1A804F
:101A10005F4B1B88184600F0D3F8F0EE407A5D4B20
:101A2000C3ED007A5B4B93ED007A5B4BD3ED007A0C
:101A3000B4EEE77AF1EE10FA05DB584B01221A708A
:101A4000574B00221A70FFF721FD554B1B78002BD6
:101A500025D0524B1B78002B21D14E4BD3ED007A71
:101A6000504B93ED007AF0EE470AB0EE670A434917
:101A70004D48FFF791FC87ED090A404BD3ED037AFF
:101A8000F0EE670A97ED090AFFF768F9034607EEDB
:101A9000903AF8EE677A454BC3ED007A03E0434B8A
:101AA0004FF08A421A60414BD3ED007AB0EE670ADC
:101AB000FFF772FD3E4B1B68002B0CBF0123002378
:101AC000DAB23B4B1A60642000F036FA314B1B68E7
:101AD0001846FEF7E1FCC7E90601324B1B681846C1
:101AE000FEF7DAFC80468946244B1B681846FEF751
:101AF000D3FC82468B46214B5B681846FEF7CCFC34
:101B0000C7E904011D4B9B681846FEF7C5FCC7E9F1
:101B10000201284B1B887B60274B1B681846FEF789
:101B2000BBFC04460D461E4B1B783B601B4B1B78D1
:101B30001E46194B1B681846FEF7AEFC02460B46C4
:101B4000CDE90E230D9639680C91CDE90A457B68E5
:101B5000089397ED027B8DED067B97ED047B8DED71
:101B6000047BCDE902ABCDE90089D7E90623134810
:101B700006F0A2F9FFF7FCFE40E700BF0C020020D0
:101B800000004842CDCCCC3D0000C8420E000020F1
:101B9000FC010020000200200800002005020020B7
:101BA00004020020040000201C020020F801002094
:101BB000A48242420C0000200802002020AE00084F
:101BC00080B485B000AF0346FB80FB8807EE903AF7
:101BD000F8EE677AC7ED037A174BBB60D7ED037A4F
:101BE0009FED167AF4EEC77AF1EE10FA01DD144B90
:101BF000FB60D7ED037A9FED137AF4EEC77AF1EE2E
:101C000010FA02D8DFED106A0DE0D7ED037A9FEDF0
:101C10000D7A77EEC77A9FED0D7A27EE877AD7EDAA
:101C2000027AC7EE276AF0EE667AB0EE670A1437DA
:101C3000BD465DF8047B704700E0FF4400F07F453F
:101C400000F07F4500000045000000000000164342
:101C500080B400AF00BFBD465DF8047B704780B420
:101C600000AF00BFFDE780B400AF00BFFDE780B468
:101C700000AF00BFFDE780B400AF00BFFDE780B458
:101C800000AF00BFBD465DF8047B704780B400AF75
:101C900000BFBD465DF8047B704780B400AF00BF55
:101CA000BD465DF8047B704780B400AF00BFBD4601
:101CB0005DF8047B7047000080B500AF164BD3F889
:101CC0008830154A43F47003C2F88830134B1B6800
:101CD000124A43F001031360104B00229A600F4B2D
:101CE0001B680E4A23F0847323F4803313600B4B7C
:101CF0000B4A5A60094B1B68084A23F4802313607F
:101D0000064B0022DA6000F00DF8034B4FF0006242
:101D10009A6000BF80BD00BF00ED00E000380240C7
:101D20001030002480B483B000AF00237B60002318
:101D30003B60364B1B68354A43F480331360334BAA
:101D40001B6803F400333B607B6801337B603B68B6
:101D5000002B03D17B68B3F5A04FF0D12B4B1B6850
:101D600003F40033002B02D001233B6001E0002389
:101D70003B603B68012B42D1244B1B6C234A43F050
:101D800080531364224B1B68214A43F44043136081
:101D90001E4B1E4A9B6893601C4B9B681B4A43F476
:101DA00000439360194B9B68184A43F4A053936017
:101DB000164B184A5A60154B1B68144A43F080733F
:101DC000136000BF114B1B6803F00073002BF9D0A8
:101DD000114B40F205721A600C4B9B680B4A23F0C2
:101DE00003039360094B9B68084A43F00203936026
:101DF00000BF064B9B6803F00C03082BF9D100BF12
:101E00000C37BD465DF8047B704700BF00380240C8
:101E10000070004008544007003C024080B582B08A
:101E200000AF0346FB716FF0040003F02BFEFB795B
:101E3000DB08DAB2084B1A70074B1B781A465201BE
:101E4000D21A92001344DB009AB2044B1A8000BFEE
:101E50000837BD4680BD00BF280200202A020020AE
:101E600080B485B000AF7860164B1B781946164ACF
:101E70007B6801FB03F35360134B00229A60124B03
:101E80001B68114A43F0010313600F4B1B68FB6092
:101E9000FB6803F00103002B04D0FB6803F48033DC
:101EA000002BF2D0084B1B68074A23F00103136094
:101EB000054B00229A6000BF1437BD465DF8047BD5
:101EC000704700BF2802002010E000E080B485B019
:101ED00000AF0346FB80FB88154A12881146154A5D
:101EE00001FB03F35360134B00229A60114B1B68F4
:101EF000104A43F0010313600E4B1B68FB60FB6844
:101F000003F00103002B04D0FB6803F48033002BA3
:101F1000F2D0084B1B68074A23F001031360054BFE
:101F200000229A6000BF1437BD465DF8047B7047FD
:101F30002A02002010E000E080B584B000AF034624
:101F4000FB80FB88134AA2FB03235B0A9BB2FB7353
:101F5000FB88104AA2FB0312520A4FF4077101FBDF
:101F600002F29B1ABB8106E04FF40770FFF7AEFF49
:101F7000FB7B013BFB73FB7B002BF5D1BB89002B6B
:101F800003D0BB891846FFF7A1FF00BF1037BD463D
:101F900080BD00BF49D6B9F280B487B000AFF86009
:101FA000B9607A6000237B6110E000BF0D4B1B8895
:101FB0009BB203F04003002BF8D07B69BA6813444E
:101FC0001A78084B9A807B6901337B617A697B6858
:101FD0009A42EADB7B6818461C37BD465DF8047BF5
:101FE000704700BF0010014080B58AB000AF786034
:101FF0000121012004F00AFA0121102004F066FA00
:1020000007220921244804F009F907220A2122485D
:1020100004F004F94FF4C0633B62022387F82430D4
:10202000022387F82530002387F82630012387F81C
:10203000273007F120031946174804F051F87B6850
:102040003B610023BB820023FB8200233B830023F0
:10205000BB830C237B8307F1100319460F4804F060
:1020600075FA01210D4804F02BFB012240F22551A5
:102070000A4804F055FB25233B7303237B7303239A
:10208000BB730123FB7307F10C03184603F098FCA4
:1020900000BF2837BD4680BD00000240001001404F
:1020A00080B582B000AF40F22551254804F080FB96
:1020B0000346002B3FD0224804F022FB0346FB716D
:1020C000204B1B881BB2002B35DB1E4B1B8803F4F7
:1020D0008043002B10D0FB790A2B03D0194B002230
:1020E0001A8028E0174B1B886FEA43436FEA53437B
:1020F0009AB2144B1A801EE0FB790D2B07D1114BBD
:102100001B8843F480439AB20E4B1A8013E00D4BA8
:102110001B88C3F30D030C49FA79CA54094B1B8879
:1021200001339AB2074B1A80064B1B88C72B02D982
:10213000044B00221A8000BF0837BD4680BD00BF97
:1021400000100140F40200202C02002080B58CB069
:1021500000AF0121012004F059F901214FF48070F2
:1021600004F0B4F94023BB62032387F82C30012329
:1021700087F82F3007F1280319461E4803F0B0FFF7
:1021800001214FF4807004F0C1F900214FF48070F8
:1021900004F0BCF9012003F02BFD0023BB610023F8
:1021A0007B6200233B624FF48033FB6107F118032D
:1021B000184603F0D9FC00233B6000233B71002349
:1021C0007B710023BB6000233B6101233B753B46D1
:1021D0001946094803F072FC07230122062106482C
:1021E00003F024FD0121044803F0E6FC00BF303772
:1021F000BD4680BD000002400020014080B582B095
:1022000000AF0346FB71F979072301220A4803F066
:102210000DFD094803F0D4FD00BF0221064803F07C
:10222000ECFD0346002BF8D0034803F0D9FD03462C
:1022300018460837BD4680BD0020014080B584B0F7
:1022400000AF03460A46FB711346BB710023FB60D7
:102250000023FB720EE0FB791846FFF7CFFF034621
:102260001A46FB681344FB600520FFF765FEFB7A06
:102270000133FB72FA7ABB799A42ECD3BB79FA68E4
:10228000B2FBF3F39BB218461037BD4680BD000089
:1022900080B586B000AF0121012004F0B7F801211C
:1022A0004FF0005004F0F2F810233B6103233B751C
:1022B0000223FB7507F1100319460E4803F010FFC7
:1022C00000233B6000237B600023BB600223FB6094
:1022D0003B461946002003F0ABFD0121002003F02E
:1022E000DBFD0021002003F0FDFD00BF1837BD46D7
:1022F00080BD00BF0000024080B584B000AF03463F
:10230000FB80FB881846FEF7A5F802460B46C7E996
:1023100002234FF00002184BD7E90201FEF73EFA04
:1023200002460B46C7E902234FF00002134BD7E9E0
:102330000201FEF709F902460B46104619460CA3A6
:10234000D3E90023FEF72AFA02460B46C7E9022327
:10235000D7E90201FEF70AFB03469BB219460020AB
:1023600003F0C0FD00BF1037BD4680BDAFF3008055
:102370006666666666660A4000408F400000B040B0
:1023800080B483B000AF0346FB80FB889BB2FB8028
:10239000044BFA8892B21A8000BF0C37BD465DF834
:1023A000047B70477E00006C80B483B000AF0346AE
:1023B000FB80FB889BB2FB80044BFA8892B25A8068
:1023C00000BF0C37BD465DF8047B70477E00006C93
:1023D00080B483B000AF064B5B889BB2FB80FB8868
:1023E0009BB218460C37BD465DF8047B704700BFB2
:1023F0007E00006C80B483B000AF03460A46FB80C9
:102400001346BB80054AFB881380044ABB8853806F
:1024100000BF0C37BD465DF8047B70477E00006C42
:1024200080B400AF044B054A12891A8000BFBD4634
:102430005DF8047B704700BF7E00006CF80200204E
:1024400080B582B000AF03460A46FB801346BB80CE
:10245000654B9B8841F66312934267D1624B9B792F
:10246000002B1ED1604B1A88FB88D31A9BB2013B0C
:10247000FB805D4B5B891846FFF782FF0020FFF76A
:1024800093FF0020FFF790FFFB881B0A9BB21846C2
:10249000FFF78AFFFB88DBB29BB21846FFF784FF89
:1024A00021E0514B5B891846FFF76AFFFB881B0A46
:1024B0009BB21846FFF778FFFB88DBB29BB2184649
:1024C000FFF772FF484B1B88013B1B129BB218465B
:1024D000FFF76AFF444B1B88013B9BB2DBB29BB208
:1024E0001846FFF761FF404B9B891846FFF748FFEE
:1024F000BB881B0A9BB21846FFF756FFBB88DBB2AE
:102500009BB21846FFF750FF374B5B88013B1B120D
:102510009BB21846FFF748FF334B5B88013B9BB2E9
:10252000DBB29BB21846FFF73FFF58E02E4B9B886B
:1025300045F21052934230D12B4B5B891846FFF77E
:102540001FFFFB881B0A9BB21846FFF72DFF264B87
:102550005B8901339BB21846FFF712FFFB88DBB2A1
:102560009BB21846FFF720FF1F4B9B891846FFF7C9
:1025700007FFBB881B0A9BB21846FFF715FF1A4BD3
:102580009B8901339BB21846FFF7FAFEBB88DBB28A
:102590009BB21846FFF708FF21E0134B5B891846F2
:1025A000FFF7EEFEFB881B0A9BB21846FFF7FCFE06
:1025B000FB88DBB29BB21846FFF7F6FE0A4B9B89FD
:1025C0001846FFF7DDFEBB881B0A9BB21846FFF7D3
:1025D000EBFEBB88DBB29BB21846FFF7E5FE00BFFF
:1025E0000837BD4680BD00BFF802002080B584B02A
:1025F00000AF0346FB710023FB810023BB81994B95
:102600009B79012B05D1974B9B8841F6631293422E
:1026100009D1944B9B79002B34D1924B9B8841F686
:10262000631293422ED1FB79072B2BD801A252F8CB
:1026300023F000BF552600085B260008612600082D
:10264000672600086D260008732600087926000812
:102650007F2600080623FB7114E00723FB7111E0BD
:102660000423FB710EE00523FB710BE00123FB71DA
:1026700008E00023FB7105E00323FB7102E0022365
:10268000FB7100BFFB79072B35D801A252F823F06C
:10269000F7260008B1260008BB260008C52600085A
:1026A000CF260008D9260008E3260008ED260008FA
:1026B000FB8943F08003FB811DE0FB8943F040036D
:1026C000FB8118E0FB8943F0C003FB8113E0FB8929
:1026D00043F02003FB810EE0FB8943F06003FB81A4
:1026E00009E0FB8943F0A003FB8104E0FB8943F090
:1026F000E003FB8100BF5B4B9B8845F21052934285
:1027000003D14FF45853BB8101E03623BB81554BB5
:102710009B8849F24132934205D0524B9B8847F245
:102720008972934203D1FB8943F00803FB81FA8944
:10273000BB8911461846FFF75DFE4A4B9B8841F660
:102740006312934225D0FB8903F02003002B10D0A5
:10275000444B1A88434B5B889A421AD2414B1B88E0
:102760007B81404B5A883F4B1A803E4A7B8953807D
:102770000FE03C4B1A883B4B5B889A4209D9394B96
:102780001B887B81374B5A88364B1A80354A7B89A8
:102790005380344B9B8845F21052934264D1314BA5
:1027A0005B891846FFF7ECFD0020FFF7FDFD2D4B80
:1027B0005B8901339BB21846FFF7E2FD0020FFF76B
:1027C000F3FD284B5B8902339BB21846FFF7D8FD17
:1027D000244B1B88013B1B129BB21846FFF7E4FDFC
:1027E000204B5B8903339BB21846FFF7C9FD1D4B95
:1027F0001B88013B9BB2DBB29BB21846FFF7D4FDAE
:10280000184B9B891846FFF7BBFD0020FFF7CCFD56
:10281000144B9B8901339BB21846FFF7B1FD002092
:10282000FFF7C2FD0F4B9B8902339BB21846FFF79F
:10283000A7FD0C4B5B88013B1B129BB21846FFF7B0
:10284000B3FD084B9B8903339BB21846FFF798FDF5
:10285000044B5B88013B9BB2DBB29BB21846FFF78F
:10286000A3FD39E0F80200201D4B5B891846FFF7F5
:1028700087FD0020FFF798FD0020FFF795FD184B1E
:102880001B88013B1B129BB21846FFF78DFD144BB2
:102890001B88013B9BB2DBB29BB21846FFF784FD5D
:1028A0000F4B9B891846FFF76BFD0020FFF77CFD5F
:1028B0000020FFF779FD0A4B5B88013B1B129BB29E
:1028C0001846FFF771FD064B5B88013B9BB2DBB2FC
:1028D0009BB21846FFF768FD00BF1037BD4680BDAC
:1028E000F802002080B582B000AF03460A46FB80A4
:1028F0001346BB80BA88FB8811461846FFF7A0FD37
:10290000FFF78EFD034B044A12885A8000BF083738
:10291000BD4680BD7E00006CF602002080B582B00E
:1029200000AF0346FB800B46BB8013467B80584BB1
:102930009B8845F21052934230D1554B5B89184623
:10294000FFF71EFDFB881B0A9BB21846FFF72CFD04
:102950004F4B5B8901339BB21846FFF711FDFB8893
:10296000DBB29BB21846FFF71FFD494B9B89184607
:10297000FFF706FDBB881B0A9BB21846FFF714FD44
:10298000434B9B8901339BB21846FFF7F9FCBB8888
:10299000DBB29BB21846FFF707FD6DE03C4B9B880E
:1029A00041F66312934245D1394B9B79002B06D1F6
:1029B000374B1A88FB88D31A9BB2013BFB80344B00
:1029C0005B891846FFF7DCFCFB881B0A9BB21846A4
:1029D000FFF7EAFCFB88DBB29BB21846FFF7E4FC8A
:1029E000FB881B0A9BB21846FFF7DEFCFB88DBB2B4
:1029F0009BB21846FFF7D8FC254B9B891846FFF77A
:102A0000BFFCBB881B0A9BB21846FFF7CDFCBB88F6
:102A1000DBB29BB21846FFF7C7FCBB881B0A9BB210
:102A20001846FFF7C1FCBB88DBB29BB21846FFF724
:102A3000BBFC21E0164B5B891846FFF7A1FCFB8825
:102A40001B0A9BB21846FFF7AFFCFB88DBB29BB2B8
:102A50001846FFF7A9FC0E4B9B891846FFF790FC20
:102A6000BB881B0A9BB21846FFF79EFCBB88DBB2F3
:102A70009BB21846FFF798FC064B054A12891A804C
:102A8000044A7B88538000BF0837BD4680BD00BF25
:102A9000F80200207E00006C80B582B000AF0346D3
:102AA000FB71BE20FFF76CFC0520FFF77DFCFB7976
:102AB0001846FDF7DFFC10A3D3E90023FDF744FD22
:102AC00002460B4610461946FDF750FF03469BB2DF
:102AD0001846FFF769FC0120FFF766FCFF20FFF7AF
:102AE00063FC0020FFF760FC0020FFF75DFC00BFE7
:102AF0000837BD4680BD00BF6666666666660440F0
:102B000080B582B000AF0346FB71584AFB799371E0
:102B1000FB79002B51D1554BF0221A80534B4FF4C7
:102B2000A0725A80514B9B8845F21052934214D1A7
:102B30004E4B4FF430521A814C4B4FF428525A816D
:102B40004A4B4FF42C529A81484B4FF4F0721A8042
:102B5000464B4FF448725A8020E0444B9B8841F624
:102B60006312934211D1414B2C221A813F4B2B22ED
:102B70005A813E4B2A229A813C4B4FF4F0721A80C4
:102B80003A4B4FF448725A8008E0384B2C221A8195
:102B9000364B2A225A81354B2B229A81334B9B8804
:102BA00045F21032934259D1304B4FF4A0721A8043
:102BB0002E4B4FF4F0725A8050E02C4B4FF4A07221
:102BC0001A802A4BF0225A80284B9B8845F21052DB
:102BD000934214D1254B4FF430521A81234B4FF4BA
:102BE00028525A81214B4FF42C529A811F4B4FF49B
:102BF00048721A801D4B4FF4F0725A8020E01B4B34
:102C00009B8841F66312934211D1184B2C221A81F2
:102C1000164B2A225A81154B2B229A81134B4FF4C3
:102C200048721A80114B4FF4F0725A8008E00F4B33
:102C30002C221A810D4B2A225A810C4B2B229A816D
:102C40000A4B9B8845F21032934207D1074B4FF451
:102C5000F0721A80054B4FF4A0725A800020FFF7E3
:102C6000C5FC00BF0837BD4680BD00BFF80200208C
:102C700080B5A0B000AF0023FB6701217A2003F0EC
:102C8000C5FB0121012003F0E1FB4FF400437B670A
:102C9000012387F87830002387F87A30022387F8F9
:102CA0007930012387F87B3007F174031946C44853
:102CB00003F016FA4CF233737B67022387F87830FF
:102CC000002387F87A30032387F87930012387F8C7
:102CD0007B3007F174031946BA4803F001FA4FF646
:102CE00080737B67022387F87830002387F87A3077
:102CF000032387F87930012387F87B3007F17403C9
:102D00001946B14803F0ECF94FF480537B67022376
:102D100087F87830002387F87A30032387F87930F2
:102D2000012387F87B3007F174031946A74803F0A5
:102D3000D7F94FF480537B67022387F8783000235C
:102D400087F87A30032387F87930012387F87B30BE
:102D500007F1740319469E4803F0C2F90C220021C2
:102D6000984803F05BFA0C220121964803F056FACA
:102D70000C220421934803F051FA0C2205219148BA
:102D800003F04CFA0C2208218E4803F047FA0C227B
:102D900009218C4803F042FA0C220A21894803F0E9
:102DA0003DFA0C220E21874803F038FA0C220F213D
:102DB000844803F033FA0C220721834803F02EFAEB
:102DC0000C220821804803F029FA0C2209217E48B0
:102DD00003F024FA0C220A217B4803F01FFA0C228C
:102DE0000B21794803F01AFA0C220C21764803F0E3
:102DF00015FA0C220D21744803F010FA0C220E2152
:102E0000714803F00BFA0C220F216F4803F006FA09
:102E10000C220C216D4803F001FA0C220C216C48A5
:102E200003F0FCF90F23FB6100233B623C237B6230
:102E30000023BB620023FB6200233B6300237B6310
:102E400009233B6000237B600823BB600023FB60F9
:102E500000233B6100237B610023BB610623BB632E
:102E60000023FB6300233B6410237B640023BB64CB
:102E700000233B650023FB6400237B650023BB65C7
:102E80004FF48053FB6500233B664FF480437B6621
:102E90000023BB6607F11C03FB663B463B6707F15B
:102EA0003803184603F054F80121062003F0EEF829
:102EB0003220FFF741F8D320FFF762FAFFF788FAD4
:102EC00003461A46434B9A80FFF782FA03461A4696
:102ED000404B9A80FFF77CFA03461A463D4B9A8096
:102EE0003C4B9B881B029AB23A4B9A80FFF770FAD0
:102EF00003461A46374B9B8813439AB2354B9A8048
:102F0000344B9B8849F24132934200F0E080042028
:102F1000FFF736FAFFF75CFA03461A462D4B9A8004
:102F2000FFF756FA03461A462A4B9A80FFF750FAE3
:102F300003461A46274B9A80264B9B881B029AB25F
:102F4000244B9A80FFF744FA03461A46214B9B888C
:102F500013439AB21F4B9A801E4B9B8848F25252E1
:102F6000934203D11B4B47F289729A80194B9B887D
:102F700047F28972934200F0AA80D420FFF700FA4A
:102F8000FFF726FA03461A46124B9A80FFF720FAFB
:102F900003461A460F4B9A80FFF71AFA03461A4661
:102FA0000C4B9A800B4B9B881B029AB2094B9A8060
:102FB000FFF70EFA03461A46064B9B8813430BE0B5
:102FC00000040240000C02400010024000140240C5
:102FD00000180240F80200209AB25B4B9A805A4BCC
:102FE0009B8845F21032934271D055214FF47040C6
:102FF000FFF700FAAA214FF20100FFF7FBF9522177
:103000004FF20200FFF7F6F908214FF20300FFF735
:10301000F1F901214FF20400FFF7ECF94FF44540BC
:10302000FFF7AEF9FFF7D4F903461A46464B9A80EC
:10303000454B9B881B029AB2434B9A804CF201503D
:10304000FFF79EF9FFF7C4F903461A463E4B9B88EB
:1030500013439AB23C4B9A800520FEF76DFF3A4B22
:103060009B88B3F5004F03D1374B45F210529A803D
:10307000354B9B8845F21052934228D0A120FFF790
:103080007FF9FFF7A5F903461A462F4B9A80FFF701
:103090009FF903461A462C4B9A802B4B9B881B02A8
:1030A0009AB2294B9A80FFF793F903461A46264BAA
:1030B0009B8813439AB2244B9A80234B9B8845F2FA
:1030C0006172934203D1204B41F663129A801E4BEA
:1030D0009B8849F24132934217D01B4B9B8847F2A1
:1030E0008972934211D0184B9B8845F2103293425B
:1030F0000BD0154B9B8845F21052934205D0124BD2
:103100009B8841F66312934228D1104B9B690F4A6A
:1031100023F00F0393610D4B9B690C4A23F47063FA
:1031200093610A4B9B69094A43F003039361064B81
:103130009B8847F2897293420AD1044B9B69034AE8
:1031400043F44073936109E0F8020020040100A0F9
:10315000944B9B69934A43F400739361924B9B8811
:103160001946924804F0A8FE8F4B9B8849F24132E1
:10317000934240F01D81CF20FFF702F90020FFF7B6
:1031800013F9C120FFF710F93020FFF70DF9ED20FA
:10319000FFF7F6F86420FFF707F90320FFF704F9BB
:1031A0001220FFF701F98120FFF7FEF8E820FFF772
:1031B000E7F88520FFF7F8F81020FFF7F5F87A20F8
:1031C000FFF7F2F8CB20FFF7DBF83920FFF7ECF838
:1031D0002C20FFF7E9F80020FFF7E6F83420FFF78E
:1031E000E3F80220FFF7E0F8F720FFF7C9F8202006
:1031F000FFF7DAF8EA20FFF7C3F80020FFF7D4F86A
:103200000020FFF7D1F8C020FFF7BAF81B20FFF726
:10321000CBF8C120FFF7B4F80120FFF7C5F8C520AF
:10322000FFF7AEF83020FFF7BFF83020FFF7BCF80B
:10323000C720FFF7A5F8B720FFF7B6F83620FFF74D
:103240009FF84820FFF7B0F83A20FFF799F855208B
:10325000FFF7AAF8B120FFF793F80020FFF7A4F8D2
:103260001A20FFF7A1F8B620FFF78AF80A20FFF727
:103270009BF8A220FFF798F8F220FFF781F80020D2
:10328000FFF792F82620FFF77BF80120FFF78CF874
:10329000E020FFF775F80F20FFF786F82A20FFF7E8
:1032A00083F82820FFF780F80820FFF77DF80E202C
:1032B000FFF77AF80820FFF777F85420FFF774F843
:1032C000A920FFF771F84320FFF76EF80A20FFF7F7
:1032D0006BF80F20FFF768F80020FFF765F8002073
:1032E000FFF762F80020FFF75FF80020FFF75CF8B7
:1032F000E120FFF745F80020FFF756F81520FFF70B
:1033000053F81720FFF750F80720FFF74DF811206A
:10331000FFF74AF80620FFF747F82B20FFF744F89D
:103320005620FFF741F83C20FFF73EF80520FFF755
:103330003BF81020FFF738F80F20FFF735F83F2053
:10334000FFF732F83F20FFF72FF80F20FFF72CF898
:103350002B20FFF715F80020FFF726F80020FFF7D5
:1033600023F80120FFF720F83F20FFF71DF82A205F
:10337000FFF706F80020FFF717F80020FFF714F812
:103380000020FFF711F8EF20FFF70EF81120FEF7ED
:10339000F7FF7820FEF7D0FD2920FEF7F1FF02F0BD
:1033A000AFB800BF040100A0F802002050AE000832
:1033B0006D4B9B8847F28972934240F0D780112071
:1033C000FEF7DEFF7820FEF7B7FD3620FEF7D8FFC8
:1033D0000020FEF7E9FF3A20FEF7D2FF0520FEF7B6
:1033E000E3FFB220FEF7CCFF0C20FEF7DDFF0C2040
:1033F000FEF7DAFF0020FEF7D7FF3320FEF7D4FFF9
:103400003320FEF7D1FFB720FEF7BAFF3520FEF7D5
:10341000CBFFBB20FEF7B4FF3220FEF7C5FFC02074
:10342000FEF7AEFF0C20FEF7BFFFC220FEF7A8FF9D
:103430000120FEF7B9FFC320FEF7A2FF1020FEF720
:10344000B3FFC420FEF79CFF2020FEF7ADFFC6208F
:10345000FEF796FF0F20FEF7A7FFD020FEF790FFA4
:10346000A420FEF7A1FFA120FEF79EFFE020FEF7BB
:1034700087FFD020FEF798FF0020FEF795FF02207F
:10348000FEF792FF0720FEF78FFF0A20FEF78CFF62
:103490002820FEF789FF3220FEF786FF4420FEF742
:1034A00083FF4220FEF780FF0620FEF77DFF0E20FF
:1034B000FEF77AFF1220FEF777FF1420FEF774FF65
:1034C0001720FEF771FFE120FEF75AFFD020FEF72C
:1034D0006BFF0020FEF768FF0220FEF765FF072064
:1034E000FEF762FF0A20FEF75FFF2820FEF75CFF71
:1034F0003120FEF759FF5420FEF756FF4720FEF714
:1035000053FF0E20FEF750FF1C20FEF74DFF172043
:10351000FEF74AFF1B20FEF747FF1E20FEF744FF81
:103520002A20FEF72DFF0020FEF73EFF0020FEF7C9
:103530003BFF0020FEF738FFEF20FEF735FF2B2082
:10354000FEF71EFF0020FEF72FFF0020FEF72CFFE6
:103550000120FEF729FF3F20FEF726FF2920FEF776
:103560000FFF01F0CDBF00BFF8020020034B9B8886
:1035700045F21032934240F07C8701E0F8020020CF
:10358000ED20FEF7FDFE0120FEF70EFFFE20FEF708
:103590000BFFEE20FEF7F4FEDE20FEF705FF2120F4
:1035A000FEF702FFF120FEF7EBFE0120FEF7FCFE26
:1035B000DF20FEF7E5FE1020FEF7F6FEC420FEF742
:1035C000DFFE8F20FEF7F0FEC620FEF7D9FE0020BA
:1035D000FEF7EAFEE220FEF7E7FEE220FEF7E4FE59
:1035E000E220FEF7E1FEBF20FEF7CAFEAA20FEF7AA
:1035F000DBFEB020FEF7C4FE0D20FEF7D5FE002056
:10360000FEF7D2FE0D20FEF7CFFE0020FEF7CCFE27
:103610001120FEF7C9FE0020FEF7C6FE1920FEF7B6
:10362000C3FE0020FEF7C0FE2120FEF7BDFE0020F5
:10363000FEF7BAFE2D20FEF7B7FE0020FEF7B4FE1F
:103640003D20FEF7B1FE0020FEF7AEFE5D20FEF746
:10365000ABFE0020FEF7A8FE5D20FEF7A5FE0020D1
:10366000FEF7A2FEB120FEF78BFE8020FEF79CFE47
:103670000020FEF799FE8B20FEF796FE0020FEF755
:1036800093FE9620FEF790FE0020FEF78DFEB220FE
:10369000FEF776FE0020FEF787FE0020FEF784FE90
:1036A0000220FEF781FE0020FEF77EFE0320FEF7DB
:1036B0007BFE0020FEF778FEB320FEF761FE0020BF
:1036C000FEF772FE0020FEF76FFE0020FEF76CFE94
:1036D0000020FEF769FE0020FEF766FE0020FEF7E0
:1036E00063FE0020FEF760FE0020FEF75DFE002076
:1036F000FEF75AFE0020FEF757FE0020FEF754FEAC
:103700000020FEF751FE0020FEF74EFE0020FEF7DF
:103710004BFE0020FEF748FE0020FEF745FE00208D
:10372000FEF742FE0020FEF73FFE0020FEF73CFEC3
:103730000020FEF739FE0020FEF736FE0020FEF7DF
:1037400033FE0020FEF730FE0020FEF72DFEB420F1
:10375000FEF716FE8B20FEF727FE0020FEF724FE64
:103760009620FEF721FE0020FEF71EFEA120FEF7A8
:103770001BFE0020FEF718FEB520FEF701FE02201A
:10378000FEF712FE0020FEF70FFE0320FEF70CFEF0
:103790000020FEF709FE0420FEF706FE0020FEF7DB
:1037A00003FEB620FEF7ECFD0020FEF7FDFD002035
:1037B000FEF7FAFDB720FEF7E3FD0020FEF7F4FD6B
:1037C0000020FEF7F1FD3F20FEF7EEFD0020FEF7A2
:1037D000EBFD5E20FEF7E8FD0020FEF7E5FD64202E
:1037E000FEF7E2FD0020FEF7DFFD8C20FEF7DCFD9A
:1037F0000020FEF7D9FDAC20FEF7D6FD0020FEF735
:10380000D3FDDC20FEF7D0FD0020FEF7CDFD7020BB
:10381000FEF7CAFD0020FEF7C7FD9020FEF7C4FDAD
:103820000020FEF7C1FDEB20FEF7BEFD0020FEF7F5
:10383000BBFDDC20FEF7B8FD0020FEF7B5FDB8208B
:10384000FEF79EFD0020FEF7AFFD0020FEF7ACFD69
:103850000020FEF7A9FD0020FEF7A6FD0020FEF7E0
:10386000A3FD0020FEF7A0FD0020FEF79DFD002037
:10387000FEF79AFDBA20FEF783FD2420FEF794FDA3
:103880000020FEF791FD0020FEF78EFD0020FEF7E0
:103890008BFDC120FEF774FD2020FEF785FD002082
:1038A000FEF782FD5420FEF77FFD0020FEF77CFD31
:1038B000FF20FEF779FD0020FEF776FDC220FEF71F
:1038C0005FFD0A20FEF770FD0020FEF76DFD04206D
:1038D000FEF76AFD0020FEF767FDC320FEF750FDEE
:1038E0003C20FEF761FD0020FEF75EFD3A20FEF76A
:1038F0005BFD0020FEF758FD3920FEF755FD002046
:10390000FEF752FD3720FEF74FFD0020FEF74CFD7D
:103910003C20FEF749FD0020FEF746FD3620FEF76D
:1039200043FD0020FEF740FD3220FEF73DFD002064
:10393000FEF73AFD2F20FEF737FD0020FEF734FD9D
:103940002C20FEF731FD0020FEF72EFD2920FEF78A
:103950002BFD0020FEF728FD2620FEF725FD002088
:10396000FEF722FD2420FEF71FFD0020FEF71CFDC0
:103970002420FEF719FD0020FEF716FD2320FEF798
:1039800013FD0020FEF710FD3C20FEF70DFD00208A
:10399000FEF70AFD3620FEF707FD0020FEF704FDC6
:1039A0003220FEF701FD0020FEF7FEFC2F20FEF77F
:1039B000FBFC0020FEF7F8FC2C20FEF7F5FC0020B5
:1039C000FEF7F2FC2920FEF7EFFC0020FEF7ECFCEE
:1039D0002620FEF7E9FC0020FEF7E6FC2420FEF797
:1039E000E3FC0020FEF7E0FC2420FEF7DDFC0020D5
:1039F000FEF7DAFC2320FEF7D7FC0020FEF7D4FC0C
:103A0000C420FEF7BDFC6220FEF7CEFC0020FEF7CE
:103A1000CBFC0520FEF7C8FC0020FEF7C5FC842087
:103A2000FEF7C2FC0020FEF7BFFCF020FEF7BCFC56
:103A30000020FEF7B9FC1820FEF7B6FC0020FEF7C8
:103A4000B3FCA420FEF7B0FC0020FEF7ADFC18206C
:103A5000FEF7AAFC0020FEF7A7FC5020FEF7A4FC0E
:103A60000020FEF7A1FC0C20FEF79EFC0020FEF7D4
:103A70009BFC1720FEF798FC0020FEF795FC952094
:103A8000FEF792FC0020FEF78FFCF320FEF78CFC83
:103A90000020FEF789FCE620FEF786FC0020FEF7FA
:103AA00083FCC520FEF76CFC3220FEF77DFC002075
:103AB000FEF77AFC4420FEF777FC0020FEF774FC4A
:103AC0006520FEF771FC0020FEF76EFC7620FEF705
:103AD0006BFC0020FEF768FC8820FEF765FC0020E8
:103AE000FEF762FCC620FEF74BFC2020FEF75CFCD4
:103AF0000020FEF759FC1720FEF756FC0020FEF7C9
:103B000053FC0120FEF750FC0020FEF74DFCC720BF
:103B1000FEF736FC0020FEF747FC0020FEF744FCD1
:103B20000020FEF741FC0020FEF73EFCC820FEF717
:103B300027FC0020FEF738FC0020FEF735FC0020B3
:103B4000FEF732FC0020FEF72FFCC920FEF718FC20
:103B50000020FEF729FC0020FEF726FC0020FEF7DF
:103B600023FC0020FEF720FC0020FEF71DFC0020B7
:103B7000FEF71AFC0020FEF717FC0020FEF714FCED
:103B80000020FEF711FC0020FEF70EFC0020FEF7DF
:103B90000BFC0020FEF708FC0020FEF705FC0020CF
:103BA000FEF702FC0020FEF7FFFB0020FEF7FCFB07
:103BB000E020FEF7E5FB1620FEF7F6FB0020FEF7FF
:103BC000F3FB1C20FEF7F0FB0020FEF7EDFB2120AD
:103BD000FEF7EAFB0020FEF7E7FB3620FEF7E4FBEA
:103BE0000020FEF7E1FB4620FEF7DEFB0020FEF79B
:103BF000DBFB5220FEF7D8FB0020FEF7D5FB64204C
:103C0000FEF7D2FB0020FEF7CFFB7A20FEF7CCFBBD
:103C10000020FEF7C9FB8B20FEF7C6FB0020FEF755
:103C2000C3FB9920FEF7C0FB0020FEF7BDFBA820D8
:103C3000FEF7BAFB0020FEF7B7FBB920FEF7B4FB96
:103C40000020FEF7B1FBC420FEF7AEFB0020FEF71C
:103C5000ABFBCA20FEF7A8FB0020FEF7A5FBD22095
:103C6000FEF7A2FB0020FEF79FFBD920FEF79CFB8E
:103C70000020FEF799FBE020FEF796FB0020FEF700
:103C800093FBF320FEF790FB0020FEF78DFBE12075
:103C9000FEF776FB1620FEF787FB0020FEF784FB7D
:103CA0001C20FEF781FB0020FEF77EFB2220FEF7A2
:103CB0007BFB0020FEF778FB3620FEF775FB00202B
:103CC000FEF772FB4520FEF76FFB0020FEF76CFB52
:103CD0005220FEF769FB0020FEF766FB6420FEF72A
:103CE00063FB0020FEF760FB7A20FEF75DFB0020FF
:103CF000FEF75AFB8B20FEF757FB0020FEF754FB24
:103D00009920FEF751FB0020FEF74EFBA820FEF79E
:103D10004BFB0020FEF748FBB920FEF745FB0020D7
:103D2000FEF742FBC420FEF73FFB0020FEF73CFB02
:103D3000CA20FEF739FB0020FEF736FBD220FEF743
:103D400033FB0020FEF730FBD820FEF72DFB0020D0
:103D5000FEF72AFBE020FEF727FB0020FEF724FBFE
:103D6000F320FEF721FB0020FEF71EFBE220FEF70A
:103D700007FB0520FEF718FB0020FEF715FB0B20C4
:103D8000FEF712FB0020FEF70FFB1B20FEF70CFBDB
:103D90000020FEF709FB3420FEF706FB0020FEF7AB
:103DA00003FB4420FEF700FB0020FEF7FDFA4F2046
:103DB000FEF7FAFA0020FEF7F7FA6120FEF7F4FAB0
:103DC0000020FEF7F1FA7920FEF7EEFA0020FEF768
:103DD000EBFA8820FEF7E8FA0020FEF7E5FA9720D4
:103DE000FEF7E2FA0020FEF7DFFAA620FEF7DCFA83
:103DF0000020FEF7D9FAB720FEF7D6FA0020FEF72A
:103E0000D3FAC220FEF7D0FA0020FEF7CDFAC72081
:103E1000FEF7CAFA0020FEF7C7FAD120FEF7C4FA6F
:103E20000020FEF7C1FAD620FEF7BEFA0020FEF70A
:103E3000BBFADD20FEF7B8FA0020FEF7B5FAF32052
:103E4000FEF7B2FA0020FEF7AFFAE320FEF798FA89
:103E50000520FEF7A9FA0020FEF7A6FA0A20FEF7D1
:103E6000A3FA0020FEF7A0FA1C20FEF79DFA00201E
:103E7000FEF79AFA3320FEF797FA0020FEF794FA3D
:103E80004420FEF791FA0020FEF78EFA5020FEF74C
:103E90008BFA0020FEF788FA6220FEF785FA0020F0
:103EA000FEF782FA7820FEF77FFA0020FEF77CFA10
:103EB0008820FEF779FA0020FEF776FA9720FEF7C1
:103EC00073FA0020FEF770FAA620FEF76DFA0020C4
:103ED000FEF76AFAB720FEF767FA0020FEF764FAE9
:103EE000C220FEF761FA0020FEF75EFAC720FEF757
:103EF0005BFA0020FEF758FAD120FEF755FA0020B1
:103F0000FEF752FAD520FEF74FFA0020FEF74CFAE2
:103F1000DD20FEF749FA0020FEF746FAF320FEF70F
:103F200043FA0020FEF740FAE420FEF729FA0120C8
:103F3000FEF73AFA0020FEF737FA0120FEF734FACE
:103F40000020FEF731FA0220FEF72EFA0020FEF7DD
:103F50002BFA2A20FEF728FA0020FEF725FA3C204B
:103F6000FEF722FA0020FEF71FFA4B20FEF71CFA9C
:103F70000020FEF719FA5D20FEF716FA0020FEF782
:103F800013FA7420FEF710FA0020FEF70DFA8420D1
:103F9000FEF70AFA0020FEF707FA9320FEF704FA6C
:103FA0000020FEF701FAA220FEF7FEF90020FEF73E
:103FB000FBF9B320FEF7F8F90020FEF7F5F9BE2073
:103FC000FEF7F2F90020FEF7EFF9C420FEF7ECF956
:103FD0000020FEF7E9F9CD20FEF7E6F90020FEF714
:103FE000E3F9D320FEF7E0F90020FEF7DDF9DD204C
:103FF000FEF7DAF90020FEF7D7F9F320FEF7D4F93F
:104000000020FEF7D1F9E520FEF7BAF90020FEF70F
:10401000CBF90020FEF7C8F90020FEF7C5F9002013
:10402000FEF7C2F90220FEF7BFF90020FEF7BCF947
:104030002920FEF7B9F90020FEF7B6F93C20FEF77B
:10404000B3F90020FEF7B0F94B20FEF7ADF90020E0
:10405000FEF7AAF95D20FEF7A7F90020FEF7A4F904
:104060007420FEF7A1F90020FEF79EF98420FEF7E8
:104070009BF90020FEF798F99320FEF795F90020B0
:10408000FEF792F9A220FEF78FF90020FEF78CF9D7
:10409000B320FEF789F90020FEF786F9BE20FEF76F
:1040A00083F90020FEF780F9C420FEF77DF9002097
:1040B000FEF77AF9CD20FEF777F90020FEF774F9C4
:1040C000D320FEF771F90020FEF76EF9DC20FEF731
:1040D0006BF90020FEF768F9F320FEF765F9002080
:1040E000FEF762F9E620FEF74BF91120FEF75CF9C6
:1040F0000020FEF759F93420FEF756F90020FEF7AC
:1041000053F95620FEF750F90020FEF74DF97620BE
:10411000FEF74AF90020FEF747F97720FEF744F949
:104120000020FEF741F96620FEF73EF90020FEF779
:104130003BF98820FEF738F90020FEF735F9992081
:10414000FEF732F90020FEF72FF9BB20FEF72CF91D
:104150000020FEF729F99920FEF726F90020FEF746
:1041600023F96620FEF720F90020FEF71DF95520FF
:10417000FEF71AF90020FEF717F95520FEF714F99B
:104180000020FEF711F94520FEF70EF90020FEF79A
:104190000BF94320FEF708F90020FEF705F944204B
:1041A000FEF702F90020FEF7FFF8E720FEF7E8F837
:1041B0003220FEF7F9F80020FEF7F6F85520FEF75A
:1041C000F3F80020FEF7F0F87620FEF7EDF8002077
:1041D000FEF7EAF86620FEF7E7F80020FEF7E4F8BD
:1041E0006720FEF7E1F80020FEF7DEF86720FEF713
:1041F000DBF80020FEF7D8F88720FEF7D5F800207E
:10420000FEF7D2F89920FEF7CFF80020FEF7CCF8A1
:10421000BB20FEF7C9F80020FEF7C6F89920FEF78C
:10422000C3F80020FEF7C0F87720FEF7BDF80020A5
:10423000FEF7BAF84420FEF7B7F80020FEF7B4F80E
:104240005620FEF7B1F80020FEF7AEF82320FEF767
:10425000ABF80020FEF7A8F83320FEF7A5F8002001
:10426000FEF7A2F84520FEF79FF80020FEF79CF825
:10427000E820FEF785F80020FEF796F80020FEF70C
:1042800093F89920FEF790F80020FEF78DF887202C
:10429000FEF78AF80020FEF787F88820FEF784F8FA
:1042A0000020FEF781F87720FEF77EF80020FEF769
:1042B0007BF86620FEF778F80020FEF775F8882076
:1042C000FEF772F80020FEF76FF8AA20FEF76CF8F0
:1042D0000020FEF769F8BB20FEF766F80020FEF725
:1042E00063F89920FEF760F80020FEF75DF866207D
:1042F000FEF75AF80020FEF757F85520FEF754F85D
:104300000020FEF751F85520FEF74EF80020FEF78A
:104310004BF84420FEF748F80020FEF745F844200B
:10432000FEF742F80020FEF73FF85520FEF73CF874
:104330000020FEF739F8E920FEF722F8AA20FEF760
:1043400033F80020FEF730F80020FEF72DF80020AB
:10435000FEF72AF80020FEF713F8AA20FEF724F84B
:10436000CF20FEF70DF80020FEF71EF80020FEF724
:104370001BF80020FEF718F80020FEF715F80020C3
:10438000FEF712F80020FEF70FF80020FEF70CF8F9
:104390000020FEF709F80020FEF706F80020FEF7DF
:1043A00003F80020FEF700F80020FDF7FDFF0020D5
:1043B000FDF7FAFF0020FDF7F7FF0020FDF7F4FFFF
:1043C0000020FDF7F1FF0020FDF7EEFFF020FDF7E4
:1043D000D7FF0020FDF7E8FF5020FDF7E5FF0020A4
:1043E000FDF7E2FF0020FDF7DFFF0020FDF7DCFF17
:1043F000F320FDF7C5FF0020FDF7D6FFF920FDF7FC
:10440000BFFF0620FDF7D0FF1020FDF7CDFF2920CC
:10441000FDF7CAFF0020FDF7C7FF3A20FDF7B0FF08
:104420005520FDF7C1FF1120FDF7AAFF6420FDF71D
:1044300083FD2920FDF7A4FF3520FDF7A1FF002013
:10444000FDF7B2FF5120FDF79BFFFF20FDF7ACFF0A
:104450005320FDF795FF2C20FDF7A6FF5520FDF713
:104460008FFF8220FDF7A0FF2C20FDF789FF01F0D0
:1044700047B8044B9B8845F21052934240F0818725
:1044800002E000BFF802002055214FF47040FDF714
:10449000B1FFAA214FF20100FDF7ACFF52214FF20C
:1044A0000200FDF7A7FF08214FF20300FDF7A2FF6E
:1044B00001214FF20400FDF79DFF0D214FF4304024
:1044C000FDF798FF0D214BF20100FDF793FF0D2141
:1044D0004BF20200FDF78EFF34214FF43640FDF71A
:1044E00089FF34214BF20160FDF784FF34214BF248
:1044F0000260FDF77FFF0D214FF43140FDF77AFF99
:104500000D214BF20110FDF775FF0D214BF202104A
:10451000FDF770FF34214FF43740FDF76BFF342176
:104520004BF20170FDF766FF34214BF20270FDF78C
:1045300061FF00214FF43240FDF75CFF00214BF298
:104540000120FDF757FF00214BF20220FDF752FF3B
:1045500024214FF43840FDF74DFF24214BF6010094
:10456000FDF748FF24214BF60200FDF743FF012130
:104570004FF43F40FDF73EFF0F214FF43340FDF76E
:1045800039FF0F214BF20130FDF734FF0F214BF2C1
:104590000230FDF72FFF34214FF43940FDF72AFF99
:1045A00034214BF60110FDF725FF34214BF60210A4
:1045B000FDF720FF08214FF43540FDF71BFF0821D0
:1045C0004BF20150FDF716FF08214BF20250FDF7A8
:1045D00011FF03214FF44240FDF70CFF24214FF45B
:1045E0003A40FDF707FF24214BF60120FDF702FFBB
:1045F00024214BF60220FDF7FDFE00214FF43C4044
:10460000FDF7F8FE78214BF60140FDF7F3FE00219F
:104610004BF60240FDF7EEFE00214FF43D40FDF762
:10462000E9FE78214BF60150FDF7E4FE00214BF640
:104630000250FDF7DFFE00214FF43E40FDF7DAFEA9
:1046400064214BF60160FDF7D5FE00214FF4514087
:10465000FDF7D0FE33214DF20110FDF7CBFE002116
:104660004DF20210FDF7C6FE34214DF20310FDF7A6
:10467000C1FE00214DF20410FDF7BCFE3A214DF2BF
:104680000510FDF7B7FE00214DF20610FDF7B2FE52
:104690004A214DF20710FDF7ADFE00214DF2081042
:1046A000FDF7A8FE5C214DF20910FDF7A3FE0021E5
:1046B0004DF20A10FDF79EFE81214DF20B10FDF721
:1046C00099FE00214DF20C10FDF794FEA6214DF24B
:1046D0000D10FDF78FFE00214DF20E10FDF78AFE42
:1046E000E5214DF20F10FDF785FE01214DF210106E
:1046F000FDF780FE13214DF21110FDF77BFE012125
:104700004DF21210FDF776FE54214DF21310FDF715
:1047100071FE01214DF21410FDF76CFE82214DF265
:104720001510FDF767FE01214DF21610FDF762FE30
:10473000CA214DF21710FDF75DFE02214DF218104F
:10474000FDF758FE00214DF21910FDF753FE02212E
:104750004DF21A10FDF74EFE01214DF21B10FDF730
:1047600049FE02214DF21C10FDF744FE34214DF2AA
:104770001D10FDF73FFE02214DF21E10FDF73AFE1F
:1047800067214DF21F10FDF735FE02214DF220107A
:10479000FDF730FE84214DF22110FDF72BFE0221A2
:1047A0004DF22210FDF726FEA4214DF22310FDF755
:1047B00021FE02214DF22410FDF71CFEB7214DF21F
:1047C0002510FDF717FE02214DF22610FDF712FE0F
:1047D000CF214DF22710FDF70DFE02214DF22810DA
:1047E000FDF708FEDE214DF22910FDF703FE022140
:1047F0004DF22A10FDF7FEFDF2214DF22B10FDF7D0
:10480000F9FD02214DF22C10FDF7F4FDFE214DF2D1
:104810002D10FDF7EFFD03214DF22E10FDF7EAFDFF
:1048200010214DF22F10FDF7E5FD03214DF2301060
:10483000FDF7E0FD33214DF23110FDF7DBFD0321E3
:104840004DF23210FDF7D6FD6D214DF23310FDF71C
:10485000D1FD00214FF45240FDF7CCFD33214DF244
:104860000120FDF7C7FD00214DF20220FDF7C2FD3A
:1048700034214DF20320FDF7BDFD00214DF204204F
:10488000FDF7B8FD3A214DF20520FDF7B3FD0021FB
:104890004DF20620FDF7AEFD4A214DF20720FDF74F
:1048A000A9FD00214DF20820FDF7A4FD5C214DF289
:1048B0000920FDF79FFD00214DF20A20FDF79AFD2A
:1048C00081214DF20B20FDF795FD00214DF20C20CA
:1048D000FDF790FDA6214DF20D20FDF78BFD002187
:1048E0004DF20E20FDF786FDE5214DF20F20FDF77C
:1048F00081FD01214DF21020FDF77CFD13214DF2C9
:104900001120FDF777FD01214DF21220FDF772FD18
:1049100054214DF21320FDF76DFD01214DF21420BD
:10492000FDF768FD82214DF21520FDF763FD0121A1
:104930004DF21620FDF75EFDCA214DF21720FDF75E
:1049400059FD02214DF21820FDF754FD00214DF2D2
:104950001920FDF74FFD02214DF21A20FDF74AFD07
:1049600001214DF21B20FDF745FD02214DF21C20D7
:10497000FDF740FD34214DF21D20FDF73BFD0221E6
:104980004DF21E20FDF736FD67214DF21F20FDF789
:1049900031FD02214DF22020FDF72CFD84214DF246
:1049A0002120FDF727FD02214DF22220FDF722FDF7
:1049B000A4214DF22320FDF71DFD02214DF22420FC
:1049C000FDF718FDB7214DF22520FDF713FD02215B
:1049D0004DF22620FDF70EFDCF214DF22720FDF7E9
:1049E00009FD02214DF22820FDF704FDDE214DF2E4
:1049F0002920FDF7FFFC02214DF22A20FDF7FAFCE9
:104A0000F2214DF22B20FDF7F5FC02214DF22C2076
:104A1000FDF7F0FCFE214DF22D20FDF7EBFC03210C
:104A20004DF22E20FDF7E6FC10214DF22F20FDF770
:104A3000E1FC03214DF23020FDF7DCFC33214DF287
:104A40003120FDF7D7FC03214DF23220FDF7D2FCD7
:104A50006D214DF23320FDF7CDFC00214FF4534082
:104A6000FDF7C8FC33214DF20130FDF7C3FC0021F6
:104A70004DF20230FDF7BEFC34214DF20330FDF75C
:104A8000B9FC00214DF20430FDF7B4FC3A214DF29F
:104A90000530FDF7AFFC00214DF20630FDF7AAFC12
:104AA0004A214DF20730FDF7A5FC00214DF20830F8
:104AB000FDF7A0FC5C214DF20930FDF79BFC0021C5
:104AC0004DF20A30FDF796FC81214DF20B30FDF7D7
:104AD00091FC00214DF20C30FDF78CFCA6214DF22B
:104AE0000D30FDF787FC00214DF20E30FDF782FC02
:104AF000E5214DF20F30FDF77DFC01214DF2103024
:104B0000FDF778FC13214DF21130FDF773FC012104
:104B10004DF21230FDF76EFC54214DF21330FDF7CB
:104B200069FC01214DF21430FDF764FC82214DF245
:104B30001530FDF75FFC01214DF21630FDF75AFCF0
:104B4000CA214DF21730FDF755FC02214DF2183005
:104B5000FDF750FC00214DF21930FDF74BFC02210E
:104B60004DF21A30FDF746FC01214DF21B30FDF7E6
:104B700041FC02214DF21C30FDF73CFC34214DF28A
:104B80001D30FDF737FC02214DF21E30FDF732FCDF
:104B900067214DF21F30FDF72DFC02214DF2203030
:104BA000FDF728FC84214DF22130FDF723FC022182
:104BB0004DF22230FDF71EFCA4214DF22330FDF70B
:104BC00019FC02214DF22430FDF714FCB7214DF2FF
:104BD0002530FDF70FFC02214DF22630FDF70AFCCF
:104BE000CF214DF22730FDF705FC02214DF2283090
:104BF000FDF700FCDE214DF22930FDF7FBFB022121
:104C00004DF22A30FDF7F6FBF2214DF22B30FDF785
:104C1000F1FB02214DF22C30FDF7ECFBFE214DF2B1
:104C20002D30FDF7E7FB03214DF22E30FDF7E2FBBF
:104C300010214DF22F30FDF7DDFB03214DF2303016
:104C4000FDF7D8FB33214DF23130FDF7D3FB0321C3
:104C50004DF23230FDF7CEFB6D214DF23330FDF7D2
:104C6000C9FB00214FF45440FDF7C4FB33214DF242
:104C70000140FDF7BFFB00214DF20240FDF7BAFBFA
:104C800034214DF20340FDF7B5FB00214DF2044005
:104C9000FDF7B0FB3A214DF20540FDF7ABFB0021DB
:104CA0004DF20640FDF7A6FB4A214DF20740FDF705
:104CB000A1FB00214DF20840FDF79CFB5C214DF269
:104CC0000940FDF797FB00214DF20A40FDF792FBEA
:104CD00081214DF20B40FDF78DFB00214DF20C4080
:104CE000FDF788FBA6214DF20D40FDF783FB002167
:104CF0004DF20E40FDF77EFBE5214DF20F40FDF732
:104D000079FB01214DF21040FDF774FB13214DF2A8
:104D10001140FDF76FFB01214DF21240FDF76AFBD8
:104D200054214DF21340FDF765FB01214DF2144073
:104D3000FDF760FB82214DF21540FDF75BFB012181
:104D40004DF21640FDF756FBCA214DF21740FDF714
:104D500051FB02214DF21840FDF74CFB00214DF2B2
:104D60001940FDF747FB02214DF21A40FDF742FBC7
:104D700001214DF21B40FDF73DFB02214DF21C408D
:104D8000FDF738FB34214DF21D40FDF733FB0221C6
:104D90004DF21E40FDF72EFB67214DF21F40FDF73F
:104DA00029FB02214DF22040FDF724FB84214DF226
:104DB0002140FDF71FFB02214DF22240FDF71AFBB7
:104DC000A4214DF22340FDF715FB02214DF22440B2
:104DD000FDF710FBB7214DF22540FDF70BFB02213B
:104DE0004DF22640FDF706FBCF214DF22740FDF79F
:104DF00001FB02214DF22840FDF7FCFADE214DF2C5
:104E00002940FDF7F7FA02214DF22A40FDF7F2FAA8
:104E1000F2214DF22B40FDF7EDFA02214DF22C402C
:104E2000FDF7E8FAFE214DF22D40FDF7E3FA0321EC
:104E30004DF22E40FDF7DEFA10214DF22F40FDF726
:104E4000D9FA03214DF23040FDF7D4FA33214DF267
:104E50003140FDF7CFFA03214DF23240FDF7CAFA97
:104E60006D214DF23340FDF7C5FA00214FF4554056
:104E7000FDF7C0FA33214DF20150FDF7BBFA0021D6
:104E80004DF20250FDF7B6FA34214DF20350FDF712
:104E9000B1FA00214DF20450FDF7ACFA3A214DF27F
:104EA0000550FDF7A7FA00214DF20650FDF7A2FAD2
:104EB0004A214DF20750FDF79DFA00214DF20850AE
:104EC000FDF798FA5C214DF20950FDF793FA0021A5
:104ED0004DF20A50FDF78EFA81214DF20B50FDF78D
:104EE00089FA00214DF20C50FDF784FAA6214DF20B
:104EF0000D50FDF77FFA00214DF20E50FDF77AFAC2
:104F0000E5214DF20F50FDF775FA01214DF21050D9
:104F1000FDF770FA13214DF21150FDF76BFA0121E4
:104F20004DF21250FDF766FA54214DF21350FDF781
:104F300061FA01214DF21450FDF75CFA82214DF225
:104F40001550FDF757FA01214DF21650FDF752FAB0
:104F5000CA214DF21750FDF74DFA02214DF21850BB
:104F6000FDF748FA00214DF21950FDF743FA0221EE
:104F70004DF21A50FDF73EFA01214DF21B50FDF79C
:104F800039FA02214DF21C50FDF734FA34214DF26A
:104F90001D50FDF72FFA02214DF21E50FDF72AFA9F
:104FA00067214DF21F50FDF725FA02214DF22050E6
:104FB000FDF720FA84214DF22150FDF71BFA022162
:104FC0004DF22250FDF716FAA4214DF22350FDF7C1
:104FD00011FA02214DF22450FDF70CFAB7214DF2DF
:104FE0002550FDF707FA02214DF22650FDF702FA8F
:104FF000CF214DF22750FDF7FDF902214DF2285047
:10500000FDF7F8F9DE214DF22950FDF7F3F9022101
:105010004DF22A50FDF7EEF9F2214DF22B50FDF73B
:10502000E9F902214DF22C50FDF7E4F9FE214DF291
:105030002D50FDF7DFF903214DF22E50FDF7DAF97F
:1050400010214DF22F50FDF7D5F903214DF23050CC
:10505000FDF7D0F933214DF23150FDF7CBF90321A3
:105060004DF23250FDF7C6F96D214DF23350FDF788
:10507000C1F900214FF45640FDF7BCF933214DF240
:105080000160FDF7B7F900214DF20260FDF7B2F9BA
:1050900034214DF20360FDF7ADF900214DF20460BB
:1050A000FDF7A8F93A214DF20560FDF7A3F90021BB
:1050B0004DF20660FDF79EF94A214DF20760FDF7BB
:1050C00099F900214DF20860FDF794F95C214DF249
:1050D0000960FDF78FF900214DF20A60FDF78AF9AA
:1050E00081214DF20B60FDF785F900214DF20C6036
:1050F000FDF780F9A6214DF20D60FDF77BF9002147
:105100004DF20E60FDF776F9E5214DF20F60FDF7E7
:1051100071F901214DF21060FDF76CF913214DF288
:105120001160FDF767F901214DF21260FDF762F998
:1051300054214DF21360FDF75DF901214DF2146029
:10514000FDF758F982214DF21560FDF753F9012161
:105150004DF21660FDF74EF9CA214DF21760FDF7CA
:1051600049F902214DF21860FDF744F900214DF292
:105170001960FDF73FF902214DF21A60FDF73AF987
:1051800001214DF21B60FDF735F902214DF21C6043
:10519000FDF730F934214DF21D60FDF72BF90221A6
:1051A0004DF21E60FDF726F967214DF21F60FDF7F5
:1051B00021F902214DF22060FDF71CF984214DF206
:1051C0002160FDF717F902214DF22260FDF712F977
:1051D000A4214DF22360FDF70DF902214DF2246068
:1051E000FDF708F9B7214DF22560FDF703F902211B
:1051F0004DF22660FDF7FEF8CF214DF22760FDF756
:10520000F9F802214DF22860FDF7F4F8DE214DF2A5
:105210002960FDF7EFF802214DF22A60FDF7EAF868
:10522000F2214DF22B60FDF7E5F802214DF22C60E2
:10523000FDF7E0F8FE214DF22D60FDF7DBF80321CC
:105240004DF22E60FDF7D6F810214DF22F60FDF7DC
:10525000D1F803214DF23060FDF7CCF833214DF247
:105260003160FDF7C7F803214DF23260FDF7C2F857
:105270006D214DF23360FDF7BDF855214FF47040BC
:10528000FDF7B8F8AA214FF20100FDF7B3F852215B
:105290004FF20200FDF7AEF808214FF20300FDF7D0
:1052A000A9F800214FF20400FDF7A4F8CC214FF437
:1052B0003140FDF79FF800214BF20110FDF79AF8FD
:1052C00005214FF43640FDF795F870214FF4374033
:1052D000FDF790F870214BF20170FDF78BF801217A
:1052E0004FF43840FDF786F803214BF60100FDF737
:1052F00081F803214BF60200FDF77CF803214BF601
:105300000300FDF777F802214FF43C40FDF772F8F7
:1053100000214BF60140FDF76DF800214BF60240ED
:10532000FDF768F8D0214FF44940FDF763F80221FA
:105330004CF60110FDF75EF850214CF60210FDF717
:1053400059F850214CF60310FDF754F850214CF653
:105350000410FDF74FF800214FF45450FDF74AF8C0
:1053600055214FF46850FDF745F84FF48850FDF78C
:1053700007F87820FCF774FD4FF42450FDF700F88F
:10538000BEE0664B9B8841F66312934240F0B880C2
:10539000E220FCF7F5FF1D20FDF706F80220FDF7DF
:1053A00003F80420FDF700F86420FCF759FDE02025
:1053B000FCF7E6FF0120FCF7F7FF0A20FCF7BCFD35
:1053C000E020FCF7DDFF0320FCF7EEFF0C20FCF7EC
:1053D000B3FD0120FCF7D4FF0A20FCF7ADFDE62069
:1053E000FCF7CEFF2F20FCF7DFFFFF20FCF7DCFFF0
:1053F000FF20FCF7D9FFB020FCF7C2FF2020FCF70C
:10540000D3FF0020FCF7D0FF0320FCF7CDFF40F2D4
:105410001F30FCF7C9FF0120FCF7C6FF40F2DF1088
:10542000FCF7C2FF0020FCF7BFFFB420FCF7A8FF89
:105430000420FCF7B9FF40F21F40FCF7B5FF002045
:10544000FCF7B2FF2E20FCF7AFFF0020FCF7ACFF0B
:105450000020FCF7A9FF0020FCF7A6FF0020FCF7C6
:10546000A3FFB620FCF78CFF0220FCF79DFF4FF452
:105470000370FCF799FF0020FCF796FF1720FCF75C
:1054800093FF1520FCF790FF0020FCF78DFF002014
:10549000FCF78AFFF020FCF773FF0320FCF784FF82
:1054A0002920FCF76DFFD020FCF76AFF0020FCF7F5
:1054B0007BFFBE20FCF764FF0520FCF775FFFE2094
:1054C000FCF772FF0120FCF76FFF0020FCF76CFF78
:1054D0000020FCF769FF0020FCF766FFB820FCF70E
:1054E0004FFF0320FCF760FF0120FCF75DFFBA20AF
:1054F000FCF746FF0120FCF757FF6420FDF7CCFACC
:105500000020FDF7FDFA064B01221A604FF6FF70EE
:1055100000F008F800BF8037BD4680BDF8020020CB
:10552000BC82404280B584B000AF0346FB800023BC
:10553000FB60114B1B88BB600F4B5B881A46BB6836
:1055400002FB03F3BB6000210020FCF779FFFCF7AE
:1055500067FF0023FB6005E0084AFB885380FB6877
:105560000133FB60FA68BB689A42F5D300BF00BF05
:105570001037BD4680BD00BFF80200207E00006CE1
:1055800090B585B000AF0446084611461A4623463A
:10559000FB800346BB800B467B8013463B80002389
:1055A0007B817A88FB88D31A9BB201337B81BB88CD
:1055B000FB8117E0FA89FB8811461846FCF740FF8B
:1055C000FCF72EFF0023BB8105E00B4A3B8C538088
:1055D000BB890133BB81BA897B899A42F5D3FB89A8
:1055E0000133FB81FA893B889A42E3D900BF00BFAF
:1055F0001437BD4690BD00BF7E00006C90B58DB0E5
:1056000000AF0446084611461A462346FB8003466F
:10561000BB800B467B8013463B800023BB6200238C
:105620007B627A88FB88D31A3B623A88BB88D31A9C
:10563000FB61FB88FB60BB88BB603B6A002B02DD23
:1056400001237B610BE03B6A002B02D100237B61CD
:1056500005E04FF0FF337B613B6A5B423B62FB69D5
:10566000002B02DD01233B610BE0FB69002B02D123
:1056700000233B6105E04FF0FF333B61FB695B4278
:10568000FB613A6AFB699A4202DD3B6ABB6101E059
:10569000FB69BB610023FB852AE0FB689BB2BA680B
:1056A00092B211461846FDF71DF9BA6A3B6A1344D7
:1056B000BB627A6AFB6913447B62BA6ABB699A422D
:1056C00007DDBA6ABB69D31ABB62FA687B69134407
:1056D000FB607A6ABB699A4207DD7A6ABB69D31AB2
:1056E0007B62BA683B691344BB60FB8D0133FB8569
:1056F000FA8DBB6901339A42CFDD00BF00BF34375A
:10570000BD4690BD90B583B000AF04460846114633
:105710001A462346FB800346BB800B467B8013461C
:105720003B80BB887A88B988F888FFF767FF3B8899
:10573000FA88B988F888FFF761FF3B887A8839884A
:10574000F888FFF75BFF3B887A88B9887888FFF78D
:1057500055FF00BF0C37BD4690BD000090B585B029
:1057600000AF0446084611461A462346FB8003460E
:10577000BB800B46FB701346BB70BB887B81BB783C
:10578000DB08DBB21A46BB7803F00703DBB2002B61
:1057900014BF01230023DBB21344DAB2BB785B08E9
:1057A000DBB212FB03F37B72FB78203BFB70002320
:1057B0007B7369E0BB780C2B0BD1FA78797B384886
:1057C00013465B0013449B0003440B441B78FB739C
:1057D00019E0BB78102B08D1FA787B7B3149120194
:1057E0000A4413441B78FB730DE0BB78182B50D18F
:1057F000FA78797B2C481346DB0013449B00034462
:105800000B441B78FB730023BB7335E097F90F3013
:10581000002B07DA254B1A88B988FB881846FDF754
:105820007DF80AE097F82030002B06D1204B1A882B
:10583000B988FB881846FDF771F8FB7B5B00FB73AA
:10584000BB880133BB801B4B5B88BA889A4222D24B
:10585000BA887B89D21ABB789A420AD17B89BB80ED
:10586000FB880133FB80134B1B88FA889A4207D3CD
:1058700012E0BB7B0133BB73BB7B072BC6D900E0B7
:1058800000BF7B7B01337B737A7B7B7A9A4291D317
:1058900002E000BF00E000BF1437BD4690BD00BF6E
:1058A00060AE0008D4B20008C4B80008F6020020B8
:1058B00010000020F802002090B587B002AF044627
:1058C000084611461A462346FB800346BB800B461A
:1058D0007B8013463B80FB88FB737A88FB881344EC
:1058E0007B803A88BB8813443B8024E0FA887B881D
:1058F0009A4207D3FB7BFB8097F820309AB2BB8893
:105900001344BB80BA883B889A421DD27B6A1A78BE
:1059100097F82030B988F88800240094FFF71EFF1C
:1059200097F820305B08DBB21A46FB881344FB80F3
:105930007B6A01337B627B6A1B787E2B05D87B6A8E
:105940001B781F2BD2D800E000BF00BF1437BD4624
:1059500090BD000080B582B000AF0121202000F092
:1059600055FD4FF4C0633B6001233B710023BB71C5
:1059700003237B710123FB713B461946054800F068
:10598000AFFB4FF4C061034800F039FC00BF08379B
:10599000BD4680BD0014024080B483B000AF786083
:1059A000064A7B6843F0BF6343F40033D36000BF13
:1059B0000C37BD465DF8047B704700BF00ED00E08A
:1059C00080B485B000AF78600023FB730023BB7305
:1059D0000F237B737B68DB78002B39D0274BDB6888
:1059E000DB431B0ADBB203F00703FB73FB7BC3F152
:1059F0000403BB737A7BFB7B42FA03F37B737B6804
:105A00005B781A46BB7B02FA03F3FB737B689A78D8
:105A10007B7B1340DAB2FB7B1343FB73FB7B1B01E5
:105A2000FB73174A7B681B781344FA7B83F80023C7
:105A30007B681B7803F01F0311497A6812785209BA
:105A4000D2B21046012202FA03F341F820300FE0EF
:105A50007B681B7803F01F0309497A6812785209A2
:105A6000D2B2104601229A4000F1200341F82320CF
:105A700000BF1437BD465DF8047B704700ED00E0C1
:105A800000E100E080B483B000AF78607B68042B55
:105A900006D1094B1B68084A43F00403136005E074
:105AA000054B1B68044A23F00403136000BF0C3746
:105AB000BD465DF8047B704710E000E080B485B01F
:105AC00000AF786039600023FB600023FB727B68C5
:105AD0005B68FB60FB6823F0407323F48073FB601A
